:020000021000EC
:1000B400130101FF9305000023248100232611006E
:1000C40013040500EF00505583A701D5638407008E
:1000D400E780070013050400EF20001193070000D8
:1000E4006388070017150000130585AE6F00400EE6
:1000F4006780000097410000938181A81385C1D4D3
:10010400138641093306A64093050000EF00D0345E
:10011400171500001305C5ABEF00800BEF00D021CD
:10012400032501009305410013060000EF0040077A
:100134006FF01FF883C7C1D46392070493070000CC
:1001440063880702130101FF172500001305052228
:100154002326110097000000E70000008320C1005F
:10016400930710002386F1D4130101016780000076
:10017400930710002386F1D4678000006780000095
:1001840093070000638C07009385C1D817250000EE
:100194001305C51D170300006700000067800000F9
:1001A400130101FE232E1100232C810013040102EC
:1001B400930750002326F4FE8327C4FE138507000B
:1001C4008320C1010324810113010102678000001F
:1001D40093050500930600001306000013050000B4
:1001E4006F00503517360000130686199725000056
:1001F4009385859C17350000130585196F0080468B
:1002040083254500130101FF2324810023261100C7
:10021400938741DA130405006384F500EF10901905
:10022400832584009387C1E06386F50013050400E9
:10023400EF1050188325C400938741E7638CF500C1
:1002440013050400032481008320C100130101016C
:100254006F1050168320C100032481001301010193
:100264006780000083A7450693F71700639807008B
:1002740083D7C50093F707206386070013050000A2
:100284006780000003A58505130101FF23261100E3
:10029400EF00D01A8320C1001305000013010101EF
:1002A4006780000083A7450693F71700639807004B
:1002B40083D7C50093F70720638607001305000062
:1002C4006780000003A58505130101FF23261100A3
:1002D400EF0050188320C100130500001301010131
:1002E40067800000130101FE232E1100232C8100DE
:1002F400232A9100138441DA232821012326310182
:100304002324410117070000130707EE9307400059
:100314001306800093050000138501E023A8E1D4AF
:100324002326F400232004002322040023240400B1
:100334002322040623280400232A0400232C040077
:10034400EF009011170A0000130A4A3D97090000B4
:1003540093890943170900001309094B9704000006
:100364009384C4501385C1DF232044032322340320
:100374002324240323269402232E8400EF00100B4D
:10038400B7070100938797001306800093050000C8
:10039400138581E6232AF40623240406232604066F
:1003A400232804062326040C232C0406232E0406E7
:1003B40023200408EF00500A9387C1E0138541E627
:1003C400232444092326340923282409232A9408AE
:1003D4002322F408EF009005B70702009387270152
:1003E4001306800093050000138501ED232EF40C01
:1003F4002328040C232A040C232C040C232A04127F
:100404002320040E2322040E2324040EEF00D00420
:10041400938741E72328440F232A340F232C240FE6
:10042400232E940E2326F40E032481018320C1017C
:1004340083244101032901018329C100032A810086
:100444001385C1EC130101026F00407E130101FE0C
:100454002326310193090500138541D7232E11006A
:10046400232C8100232A910023282101EF00007D01
:1004740083A701D56380071017390000130949F0D9
:100484009304F0FF83274900032489009387F7FF2F
:1004940063D807006F000009130484066384970877
:1004A4000317C4009387F7FFE31807FEB707FFFF9E
:1004B400938717002326F4001305840523220406DA
:1004C400EF00C076138541D7EF00C0781305C4054B
:1004D40023200400232404002322040023280400EE
:1004E400232A0400232C0400130680009305000033
:1004F400EF00807623280402232A04022322040422
:10050400232404048320C10113050400032481016E
:1005140083244101032901018329C100130101023C
:100524006780000003240900630604001309040023
:100534006FF05FF59305C01A13850900EF0050654D
:1005440013040500630C0502930740001305C5005E
:10055400232004002322F4002324A4001306001AF9
:1005640093050000EF00406F232089001309040065
:100574006FF05FF1EFF01FD76FF01FF02320090039
:10058400138541D7EF00006D9307C00023A0F90045
:100594006FF05FF7130101FF2324810013040500AA
:1005A400138541D723261100EF00406983274403B4
:1005B400639C070083A701D517070000130787C4AE
:1005C400232AE402638C0700032481008320C100F2
:1005D400138541D7130101016F00C067EFF09FD06D
:1005E400032481008320C100138541D71301010135
:1005F4006F004066138541D76F004064138541D76F
:100604006F004065130101FF138541D723261100B4
:10061400EF00C0628320C10017360000130646D6DF
:1006240097050000938545C41305000013010101DB
:100634006F004003130101FF17360000130646D470
:1006440097050000938545C6130500002326110075
:10065400EF0040018320C100138541D7130101013C
:100664006F00405F130101FD23202103232E31017C
:10067400232C4101232A51012328610123267101DE
:10068400232611022324810223229102130B050045
:10069400938B0500930A0600130A000093091000C7
:1006A4001309F0FF83A44A0003A48A009384F4FF8F
:1006B40063C804028357C40063FEF9008317E4008F
:1006C4009305040013050B0063862701E7800B00E4
:1006D400336AAA009384F4FF13048406E39C24FD84
:1006E40083AA0A00E3900AFC8320C1020324810246
:1006F40083244102032901028329C101832A410180
:10070400032B0101832BC10013050A00032A810175
:100714001301010367800000130101FF23248100FA
:10072400138405008395E50023261100EF00403172
:1007340063400502832704058320C100B387A70013
:100744002328F404032481001301010167800000BD
:100754008357C40037F7FFFF1307F7FFB3F7E7002A
:100764008320C1002316F400032481001301010136
:100774006780000013050000678000008397C500B0
:10078400130101FE232C8100232A91002328210137
:1007940023263101232E110013F7071013840500BB
:1007A40013090600938906009304050063100704E7
:1007B40037F7FFFF1307F7FFB3F7E7008315E400EC
:1007C4002316F400032481018320C10193860900C8
:1007D400130609008329C1000329010113850400BC
:1007E40083244101130101026F00402D8395E5002C
:1007F4009306200013060000EF00C01C8317C400FA
:100804006FF01FFB130101FF2324810013840500F3
:100814008395E50023261100EF00C01A1307F0FFAB
:100824008317C4006302E50237170000B3E7E7004B
:100834008320C1002328A4042316F4000324810088
:10084400130101016780000037F7FFFF1307F7FF6B
:10085400B3F7E7008320C1002316F40003248100CA
:1008640013010101678000008395E5006F004000DB
:10087400130101FF232481001304050013850500DF
:1008840023AA01D423261100EF10D0119307F0FFFF
:10089400630AF5008320C1000324810013010101D0
:1008A4006780000023229100938441D583A704002C
:1008B400638E07008320C1002320F40003248100F9
:1008C4008324410013010101678000008320C100DB
:1008D4000324810083244100130101016780000087
:1008E40083A7C1D3638EA70C83254504130101FE9E
:1008F400232A9100232E1100232C81009304050048
:1009040063880504232821012326310113090000EB
:1009140093090008B387250103A40700630E0400AC
:10092400930504000324040013850400EF004077BA
:10093400E31804FE83A5440413094900E31C39FDAC
:1009440013850400EF00C075032901018329C10048
:1009540083A584036386050013850400EF004074B7
:1009640003A40404630C040093050400032404009A
:1009740013850400EF00C072E31804FE83A5C404C9
:100984006386050013850400EF00807183A7440388
:10099400638E0700032481018320C10113850400B1
:1009A4008324410113010102678007008320C101F0
:1009B40003248101832441011301010267800000A3
:1009C40067800000130101FF1387050023248100C1
:1009D400930506001304050013860600130507009B
:1009E40023AA01D423261100EF1010039307F0FF6C
:1009F400630AF5008320C10003248100130101016F
:100A04006780000023229100938441D583A70400CA
:100A1400638E07008320C1002320F4000324810097
:100A24008324410013010101678000008320C10079
:100A34000324810083244100130101016780000025
:100A4400130101FF13870500232481009305060089
:100A540013040500138606001305070023AA01D416
:100A640023261100EF10807F9307F0FF630AF5003F
:100A74008320C10003248100130101016780000069
:100A840023229100938441D583A70400638E070039
:100A94008320C1002320F400032481008324410027
:100AA40013010101678000008320C1000324810039
:100AB400832441001301010167800000130101FF39
:100AC4001387050023248100930506001304050001
:100AD400138606001305070023AA01D42326110058
:100AE400EF10D0039307F0FF630AF5008320C100E1
:100AF4000324810013010101678000002322910077
:100B0400938441D583A70400638E07008320C1002A
:100B14002320F400032481008324410013010101F4
:100B2400678000008320C1000324810083244100E6
:100B34001301010167800000130101FF23248100D8
:100B44002320210197370000938787821734000000
:100B54001304048223261100232291003389874041
:100B640063808702135929409304000083270400FB
:100B74009384140013044400E7800700E3E824FF8F
:100B8400972700009387477F172400001304447EAF
:100B94003389874013592940638E870093040000EA
:100BA400832704009384140013044400E78007009F
:100BB400E3E824FF8320C10003248100832441004F
:100BC400032901001301010167800000130101FFE3
:100BD40023248100972700009387077A17240000B5
:100BE4001304C4793304F440232291002326110012
:100BF40093542440638004021304C4FF3304F400B8
:100C0400832704009384F4FF1304C4FFE7800700E0
:100C1400E39804FE8320C10003248100832441005F
:100C240013010101678000006780000067800000F5
:100C34006780000067800000678000006780000014
:100C44001305100067800000130510006780000082
:100C540067800000678000001303F000130705009D
:100C6400637EC3029377F7006390070A63920508D3
:100C7400937606FF1376F600B386E6002320B700CA
:100C84002322B7002324B7002326B7001307070144
:100C9400E366D7FE6314060067800000B306C34012
:100CA4009396260097020000B38656006780C6001C
:100CB4002307B700A306B7002306B700A305B700B0
:100CC4002305B700A304B7002304B700A303B700A8
:100CD4002303B700A302B7002302B700A301B700A0
:100CE4002301B700A300B7002300B700678000000A
:100CF40093F5F50F93968500B3E5D500939605011A
:100D0400B3E5D5006FF0DFF6939627009702000055
:100D1400B386560093820000E78006FA93800200AF
:100D2400938707FF3307F7403306F600E378C3F6EB
:100D34006FF0DFF3130101FE23282101138901D48D
:100D4400232C81001304050003250900232A9100A4
:100D54002326310123244101232E1100938405000D
:100D6400130A060093890600EFF05FED138781D71D
:100D7400832707006386070803A747009305F0014C
:100D84000325090063C4E50893152700631E0402C4
:100D94001307170023A2E700B387B70023A4970023
:100DA400EFF05FEB130500008320C10103248101F0
:100DB40083244101032901018329C100032A8100FD
:100DC40013010102678000003388B7002324480917
:100DD40083A68718130610003316E600B3E6C60090
:100DE40023A4D7182324381193062000E312D4FA3D
:100DF40083A6C718B3E6C60023A6D7186FF05FF919
:100E04009387C1ED2320F7006FF01FF7EFF09FE405
:100E14001305F0FF6FF05FF9130101FD2326710143
:100E2400938B01D423286101130B050003A50B0048
:100E3400232C4101138A81D72320210323248101F8
:100E440023261102138C0500EFF05FDF03290A004B
:100E540063000906232E3101232A51012324810230
:100E640023229102232291019309F0FF930A100097
:100E7400832449001384F4FF6342040293942400FE
:100E8400B304990063080C0483A7441063848705A2
:100E94001304F4FF9384C4FFE31834FF0324810292
:100EA400832441028329C101832A4101832C410007
:100EB40003A50B008320C10203290102032A810137
:100EC400032B0101832BC100032C810013010103B7
:100ED4006FF05FD88327490083A644009387F7FF08
:100EE400638A870623A2040063860602832789187F
:100EF40033978A00832C4900B377F7006394070281
:100F0400E78006000327490083270A00631E97032E
:100F1400639C27031304F4FF9384C4FFE31434F79E
:100F24006FF0DFF78327C91883A544083377F700E8
:100F34006316070213050B00E78006000327490028
:100F440083270A00E30697FDE38A07F41389070061
:100F54006FF01FF2232289006FF01FF9138505003B
:100F6400E78006006FF01FFA130101FE232C8100B5
:100F7400232A91002328210123263101232441011E
:100F840093890500232E110013090500172A000078
:100F9400130A0A52EF00104183278A003714000015
:100FA4001304F4FE83A44700B717000093F4C4FFAE
:100FB40033848400330434411354C4001304F4FF11
:100FC4001314C400634EF4009305000013050900D4
:100FD400EF10401683278A00B38797006308F50251
:100FE40013050900EF00903C8320C1010324810113
:100FF40083244101032901018329C100032A8100BB
:10100400130500001301010267800000B30580404E
:1010140013050900EF1000129307F0FF6308F504AD
:101024001387C10683268A0083270700B38484407C
:1010340093E4140013050900B387874023A29600A4
:101044002320F700EF0090368320C101032481019F
:1010540083244101032901018329C100032A81005A
:1010640013051000130101026780000093050000BE
:1010740013050900EF10000C03278A009306F00003
:10108400B307E540E3DEF6F483A641D493E7170003
:101094002322F7003305D54023A6A1066FF05FF4A1
:1010A40063860512130101FF23248100232291008A
:1010B400138405009304050023261100EF00902EED
:1010C4008325C4FF130784FF172800001308483E34
:1010D40093F7E5FF3306F7008326460003258800CF
:1010E40093F8150093F6C6FF630CC5182322D600A7
:1010F4003305D6000325450013751500639C0808C5
:10110400032384FF972800009388083B3307674034
:1011140083258700B3876700638E15130323C700F5
:1011240023A665002324B3006300051A93E6170081
:101134002322D7002320F6009306F01F63E4F60A67
:1011440093F687FF9386860083254800B306D8006C
:1011540003A6060013D5570093071000B397A70002
:10116400B3E7B700938586FF2324C7002326B7007F
:101174002322F80023A0E6002326E60003248100AE
:101184008320C1001385040083244100130101015D
:101194006F00D021631E0502B387D7009728000093
:1011A400938888318326860013E51700B305F7007A
:1011B400638216170326C60023A6C6002324D6007E
:1011C4002322A70023A0F5006FF01FF7678000001B
:1011D40093E51500232EB4FE2320F6009306F01F9A
:1011E400E3F0F6F693D69700130640006362D60E3A
:1011F40093D66700938596039395350013868603EB
:10120400B305B80083A60500938585FF6398D500D0
:101214006F00001283A686006388D50003A64600EB
:101224001376C6FFE3E8C7FE83A5C6002326B700EE
:101234002324D700032481008320C10023A4E500D4
:10124400138504008324410023A6E6001301010151
:101254006F00D0156310050A8325C6000326860097
:10126400B386F60093E716002326B60023A4C50030
:101274002322F7003307D7002320D7006FF01FF095
:10128400B386D70063900802832584FF3307B740F1
:101294008327C70003268700B386B6002326F600FB
:1012A40023A4C70013E6160083A781D42322C70012
:1012B4002324E800E3E4F6EC83A541D81385040075
:1012C400EFF09FCA6FF09FEBB387D7006FF09FEDED
:1012D400130640016378D602130640056368D606F8
:1012E40093D6C7009385F606939535001386E606D4
:1012F4006FF01FF193E617002322D7002320F60096
:101304006FF0DFE79385C605939535001386B60520
:101314006FF01FEF232AE8002328E8002326170193
:10132400232417012322A70023A0F5006FF01FE553
:10133400032548001356264093071000B397C700AF
:10134400B3E7A7002322F8006FF05FEE1306401501
:10135400636CD60093D6F700938586079395350082
:10136400138676076FF0DFE913064055636CD600E9
:1013740093D627019385D607939535001386C60720
:101384006FF01FE89305803F1306E0076FF05FE7F7
:10139400130101FD232021032326110223248102AA
:1013A40023229102232E31019387B5001307600194
:1013B400130905006360F7089304000163E4B42093
:1013C400EF00407E930780019305200097290000D9
:1013D4009389090EB387F90003A44700138787FF95
:1013E400630CE444832744008326C400032684005A
:1013F40093F7C7FFB307F40003A747002326D600DB
:1014040023A4C600136717001305090023A2E700ED
:10141400EF00C0798320C1021305840003248102F4
:1014240083244102032901028329C1011301010319
:101434006780000093F487FF63C6071863E4B41859
:10144400EF0040769307701F63F2975093D7940090
:10145400638E0718130740006368F74493D764004A
:101464009385970313888703139635009729000003
:10147400938909043386C90003244600130686FFB2
:10148400630886021305F0006F0040018326C40040
:1014940063520736630ED600138406008327440084
:1014A40093F7C7FF33879740E352E5FE930508009F
:1014B40003A409019728000093880800630C142BE7
:1014C400832744009306F00093F7C7FF33879740C0
:1014D40063C4E64823AA190123A8190163580744E1
:1014E4001307F01F03A549006360F73613F787FF5E
:1014F400130787003387E9008326070013D65700B4
:1015040093071000B397C7003365F500930787FF6F
:101514002324D4002326F40023A2A9002320870037
:1015240023A6860093D72540130610003316F60031
:101534006366C50CB377A6006394070213161600FE
:1015440093F5C5FFB377A60093854500639A07001A
:1015540013161600B377A60093854500E38A07FEA9
:101564001308F00013933500338369001305030057
:101574008327C500138E0500630AF53403A74700CB
:101584001384070083A7C7001377C7FFB3069740E8
:10159400634AD834E3C206FE3307E40083264700D7
:1015A400032684001305090093E616002322D700BE
:1015B4002326F60023A4C700EF00405F1305840030
:1015C4006F0000019307C0002320F90013050000F9
:1015D4008320C102032481028324410203290102DE
:1015E4008329C10113010103678000001306002051
:1015F400930500041308F0036FF05FE703A4890068
:10160400232861018327440013FBC7FF63689B0001
:1016140033079B409307F00063CCE7182322910122
:10162400938C41D4232A510103A70C0083AA41D8E7
:10163400232C4101232671019307F0FF330A64012F
:10164400B38A54016300F73EB71700009387F7008D
:10165400B38AFA00B7F7FFFFB3FAFA0093850A00DA
:1016640013050900EF00102D9307F0FF930B0500FD
:10167400630CF5462324810163624511138CC10672
:1016840083250C00B385BA002320BC001387050012
:101694006302AA4683A60C009307F0FF638AF6460A
:1016A400B3874B41B387E7002320FC0093FC7B0006
:1016B400638A0C38B38B9B41B7150000938B8B0066
:1016C40093858500B38A5B01B3859541B385554104
:1016D4009395450113DA450193050A0013050900A2
:1016E400EF0050259307F0FF6304F5463305754179
:1016F400B30A450103270C0023A4790193E71A00D8
:10170400B305EA0023A2FB002320BC00630E3403CC
:101714009306F00063FE66350327440093074BFFEE
:1017240093F787FF137717003367F7002322E4004A
:10173400130650003307F4002322C7002324C700F4
:1017440063E6F62C83A74B00138701D88326070092
:1017540063F4B6002320B7001387C1D7832607009C
:1017640063F4B6002320B700032C810013840B001C
:101774006F00C00103A549006FF0DFDA630C343554
:1017840003A48900032C81008327440093F7C7FF37
:101794003387974063E4972E9307F00063D0E72ED6
:1017A400032A8101832A4101832BC100832C410038
:1017B40093E714002322F400B304940023A49900B3
:1017C400136717001305090023A2E400EF00003E8D
:1017D4008320C1021305840003248102032B010129
:1017E40083244102032901028329C1011301010356
:1017F4006780000003268400B307F40003A74700B2
:101804002326D60023A4C600136717001305090076
:1018140023A2E700EF0080398320C102130584006E
:101824000324810283244102032901028329C10183
:10183400130101036780000003A4C70093852500FA
:10184400E38887C66FF01FBA13D79700930640004A
:1018540063F2E6149306400163E2E6241306C70527
:10186400131636009306B7053386C900032706000E
:10187400130686FF6318E6006F00401B03278700EA
:101884006308E6008326470093F6C6FFE3E8D7FE25
:101894000326C7002326C4002324E400232486004F
:1018A400232687006FF01FC813074001637EF70EDD
:1018B400130740056362F72093D7C4009385F706A6
:1018C4001388E706139635006FF05FBA130E1E00F7
:1018D40093773E00130585006386070E8327C500B2
:1018E4006FF09FC90326840093E514002322B400FB
:1018F4002326F60023A4C700B304940023AA990066
:1019040023A8990093E716003307E40023A61401E3
:1019140023A4140123A2F400130509002320D700F3
:10192400EF00C028130584006FF09FCAB307F400CA
:1019340003A74700130509001367170023A2E70054
:10194400EF00C026130584006FF09FC893D53400C0
:10195400938784006FF09FA793E614002322D4009A
:10196400B304940023AA990023A89900936617004E
:10197400B307F40023A6140123A4140123A2D40062
:101984001305090023A0E700EF004022130584009B
:101994006FF01FC413D7670013069703131636009E
:1019A400930687036FF05FEC9385C7051388B7052B
:1019B400139635006FF09FAB832783009385F5FF63
:1019C400639E671C93F73500130383FFE39607FEBA
:1019D40003A749009347F6FFB3F7E70023A2F900F2
:1019E40013161600E3ECC7C0E30A06C03377F6000B
:1019F400631A0700131616003377F600130E4E0011
:101A0400E30A07FE93050E006FF0DFB5930584002B
:101A140013050900EFF0CFE883250C0083AB8900A0
:101A24006FF05FD2938A0A016FF05FC393D62640AA
:101A340093071000B397D7003365F50023A2A900DC
:101A44006FF05FE5B3855B01B305B0409395450145
:101A540013DA450193050A0013050900EF00806DB0
:101A64009307F0FFE314F5C8130A00006FF09FC852
:101A7400032C81009307100023A2FB001305090027
:101A8400EF00C012032A8101832A4101032B0101C3
:101A9400832BC100832C41006FF05FB39306400594
:101AA40063ECE60613D7C7001306F70613163600D1
:101AB4009306E7066FF05FDB13074015636CF706C8
:101AC40093D7F40093858707138877071396350017
:101AD4006FF0DF99138CC10603270C003387EA00EB
:101AE4002320EC006FF01FBB03A48900832744006C
:101AF4006FF0DFC993174501E39E07B883AB8900F4
:101B0400B3075B0193E7170023A2FB006FF0DFC369
:101B140023A07C016FF09FB99306401563E4E604AB
:101B240013D7F700130687071316360093067707B3
:101B34006FF09FD3130740556364F70493D72401D0
:101B44009385D7071388C707139635006FF01F9244
:101B5400938C8CFFB38A9A01B38A7A41130A0000EA
:101B64006FF05FB99306405563E4E60213D727018B
:101B74001306D707131636009306C7076FF0DFCE98
:101B84001306803F9305F0071308E0076FF01F8EDC
:101B94001306803F9306E0076FF01FCD83A749002B
:101BA4006FF01FE4138581D66FF04F89138581D6BA
:101BB4006FF04F8A130101FF232611002320210116
:101BC4006382050E232481002322910013840500DF
:101BD400930405006306050083274503638007100B
:101BE400832744060317C40093F717006396070A74
:101BF400137707206308070E930504001385040078
:101C0400EF00C0128327C40213090500638A07008A
:101C14008325C40113850400E78007006340050A97
:101C24008357C40093F707086392070A83250403C4
:101C3400638C0500930704046386F5001385040090
:101C4400EFF00FC6232804028325440463880500AB
:101C540013850400EFF0CFC423220404EFE09F991E
:101C6400832744062316040093F717006384070AA6
:101C740003258405EFE01FFCEFE05F988320C1009B
:101C84000324810083244100130509000329010072
:101C94001301010167800000E31007F603248100AB
:101CA400832441008320C1001309000013050900A7
:101CB4000329010013010101678000008357C40058
:101CC4001309F0FF93F70708E38207F6832504015D
:101CD40013850400EFF0CFBC6FF05FF5EFE09F8B4E
:101CE4006FF01FF003258405EFE05FF58317C40050
:101CF400E39407F08327440693F71700E39007FA69
:101D040003258405EFE01FF50324810083244100AB
:101D14006FF05FF903258405EFE0DFF36FF05FF503
:101D24009305050003A5C1D36FF0DFE80397C50051
:101D3400130101FE232C810023263101232E1100DF
:101D440093778700138405009309050063900712B5
:101D5400B71700009387078083A64500B367F70091
:101D64002396F500635AD018032884026304080EEE
:101D7400232A91009316370183A4090023A00900A4
:101D840063C806188325C4011306000093061000D7
:101D940013850900E70008009307F0FF1306050008
:101DA400630AF51A8317C4000328840293F74700D3
:101DB400638E070003274400832704033306E640A9
:101DC400638607008327C4033306F6408325C401D2
:101DD4009306000013850900E70008001307F0FFCD
:101DE4008317C400631AE51283A609001307D00100
:101DF4006360D71837074020130717003357D700FD
:101E040013771700630607160326040137F7FFFF4D
:101E14001307F77F33F7E7002316E40023220400B7
:101E24002320C40013973701635407006388061006
:101E34008325040323A09900638A051093070404EF
:101E44006386F50013850900EFF08FA58324410113
:101E5400232804028320C101032481018329C100B2
:101E640013050000130101026780000023282101EB
:101E740003A90501630A0908232A910083A4050024
:101E84001377370023A02501B3842441930700006E
:101E94006314070083A745012324F40063489000DA
:101EA4006F0040063309A900635E9004832744024F
:101EB4008325C401938604001306090013850900D1
:101EC400E7800700B384A440E34EA0FC8317C4005A
:101ED4000329010193E707048320C1012316F400B9
:101EE40003248101832441018329C1001305F0FFE8
:101EF400130101026780000083A6C503E346D0E610
:101F04006FF05FF583244101032901016FF09FF411
:101F1400032604056FF09FE98326040137F7FFFFCA
:101F24001307F77F33F7E7002316E40023220400A6
:101F34002320D40013973701E35C07EE83250403C1
:101F44002328A40423A09900E39A05EE83244101E5
:101F54006FF05FF083A70900E38607E41307D0015D
:101F6400638CE700130760016388E7008317C400EC
:101F740093E707046FF05FF623A0990083244101DF
:101F84006FF05FED130101FF2324810023229100F0
:101F94002326110023202101930405001384050046
:101FA4006306050083274503638A070A8317C40071
:101FB40013090000638007040327440613771700FE
:101FC4006316070093F7072063840704138504004E
:101FD40093050400EFF09FD58327440613090500F9
:101FE40093F71700639807008357C40093F70720FB
:101FF400638407048320C1000324810083244100F7
:102004001305090003290100130101016780000081
:1020140003258405EFE09FC21385040093050400A3
:10202400EFF0DFD0832744061309050093F7170068
:10203400E39207FC6FF05FFB03258405EFE09FC18B
:102044008320C10003248100832441001305090077
:10205400032901001301010167800000EFE08FD321
:102064006FF0DFF4630A050A130101FF2320210145
:1020740003A9C1D323248100232611002322910024
:1020840013040500630609008327490363840706D4
:102094008317C400930400006380070403274406E5
:1020A400137717006316070093F70720638A070462
:1020B4001305090093050400EFF05FC78327440666
:1020C4009304050093F71700639807008357C4002F
:1020D40093F70720638C07028320C1000324810047
:1020E4000329010013850400832441001301010125
:1020F4006780000013050900EFE0CFC96FF05FF9B6
:1021040003258405EFE09FB36FF09FFA0325840550
:10211400EFE05FB46FF05FFC17160000130646266D
:1021240097050000938545E617150000130545261D
:102134006FE04FD3130101FF232481001304050032
:102144001385050023AA01D423261100EF004015AE
:102154009307F0FF630AF5008320C1000324810084
:10216400130101016780000023229100938441D56B
:1021740083A70400638E07008320C1002320F4009A
:1021840003248100832441001301010167800000BE
:102194008320C10003248100832441001301010131
:1021A40067800000130101FF23261100232481000E
:1021B400930890037300000013040500634C0500AA
:1021C4008320C100130504000324810013010101CD
:1021D4006780000033048040EF00801823208500CE
:1021E4001304F0FF6FF0DFFD9308D00573000000C7
:1021F400634405006F000000130101FF23248100E4
:10220400130405002326110033048040EF00401519
:10221400232085006F000000130101FF2326110015
:10222400232481009308E0037300000013040500D5
:10223400634C05008320C1001305040003248100BE
:10224400130101016780000033048040EF00401156
:10225400232085001304F0FF6FF0DFFD130101FF5D
:1022640023261100232481009308F0037300000047
:1022740013040500634C05008320C100130504000A
:1022840003248100130101016780000033048040AE
:10229400EF00000D232085001304F0FF6FF0DFFD35
:1022A400938681D803A70600130101FF232611009A
:1022B40093070500631007029308600D13050000DF
:1022C400730000001306F0FF13070500630AC5023C
:1022D40023A0A6003385E7009308600D7300000077
:1022E40003A70600B387E700631CF5008320C10041
:1022F40023A0A60013050700130101016780000055
:10230400EF0000068320C1009307C0002320F500DE
:102314001305F0FF1301010167800000130101FFA1
:102324002326110023248100930800047300000075
:1023340013040500634C05008320C1001305040049
:1023440003248100130101016780000033048040ED
:10235400EF000001232085001304F0FF6FF0DFFD80
:0823640003A5C1D3678000004E
:04236C00000000006D
:08337000E000010084010100EE
:043378003801010017
:1033800000000000030000002439010000000000DC
:1033900000000000243901008C390100F4390100DB
:1033A000000000000000000000000000000000001D
:1033B000000000000000000000000000000000000D
:1033C00000000000000000000000000000000000FD
:1033D00000000000000000000000000000000000ED
:1033E00000000000000000000000000000000000DD
:1033F00000000000000000000000000000000000CD
:1034000000000000000000000000000000000000BC
:1034100000000000000000000000000000000000AC
:10342000000000000000000001000000000000009B
:103430000E33CDAB34126DE6ECDE05000B00000060
:10344000000000000000000000000000000000007C
:10345000000000000000000000000000000000006C
:10346000000000000000000000000000000000005C
:10347000000000000000000000000000000000004C
:10348000000000000000000000000000000000003C
:10349000000000000000000000000000000000002C
:1034A000000000000000000000000000000000001C
:1034B0000000000000000000B0340100B034010042
:1034C000B8340100B8340100C0340100C034010038
:1034D000C8340100C8340100D0340100D0340100E8
:1034E000D8340100D8340100E0340100E034010098
:1034F000E8340100E8340100F0340100F034010048
:10350000F8340100F83401000035010000350100F5
:1035100008350100083501001035010010350100A3
:103520001835010018350100203501002035010053
:103530002835010028350100303501003035010003
:1035400038350100383501004035010040350100B3
:103550004835010048350100503501005035010063
:103560005835010058350100603501006035010013
:1035700068350100683501007035010070350100C3
:103580007835010078350100803501008035010073
:103590008835010088350100903501009035010023
:1035A0009835010098350100A0350100A0350100D3
:1035B000A8350100A8350100B0350100B035010083
:1035C000B8350100B8350100C0350100C035010033
:1035D000C8350100C8350100D0350100D0350100E3
:1035E000D8350100D8350100E0350100E035010093
:1035F000E8350100E8350100F0350100F035010043
:10360000F8350100F83501000036010000360100F0
:10361000083601000836010010360100103601009E
:10362000183601001836010020360100203601004E
:1036300028360100283601003036010030360100FE
:1036400038360100383601004036010040360100AE
:10365000483601004836010050360100503601005E
:10366000583601005836010060360100603601000E
:1036700068360100683601007036010070360100BE
:10368000783601007836010080360100803601006E
:10369000883601008836010090360100903601001E
:1036A0009836010098360100A0360100A0360100CE
:1036B000A8360100A8360100B0360100B03601007E
:1036C000B8360100B8360100C0360100C03601002E
:1036D000C8360100C8360100D0360100D0360100DE
:1036E000D8360100D8360100E0360100E03601008E
:1036F000E8360100E8360100F0360100F03601003E
:10370000F8360100F83601000037010000370100EB
:103710000837010008370100103701001037010099
:103720001837010018370100203701002037010049
:1037300028370100283701003037010030370100F9
:1037400038370100383701004037010040370100A9
:103750004837010048370100503701005037010059
:103760005837010058370100603701006037010009
:1037700068370100683701007037010070370100B9
:103780007837010078370100803701008037010069
:103790008837010088370100903701009037010019
:1037A0009837010098370100A0370100A0370100C9
:1037B000A8370100A8370100B0370100B037010079
:1037C000B8370100B8370100C0370100C037010029
:1037D000C8370100C8370100D0370100D0370100D9
:1037E000D8370100D8370100E0370100E037010089
:1037F000E8370100E8370100F0370100F037010039
:10380000F8370100F83701000038010000380100E6
:103810000838010008380100103801001038010094
:103820001838010018380100203801002038010044
:1038300028380100283801003038010030380100F4
:1038400038380100383801004038010040380100A4
:103850004838010048380100503801005038010054
:103860005838010058380100603801006038010004
:1038700068380100683801007038010070380100B4
:103880007838010078380100803801008038010064
:103890008838010088380100903801009038010014
:1038A0009838010098380100A0380100A0380100C4
:0838B000A8380100A83801004E
:1038B8000000000090330100F0380100FFFFFFFF17
:0438C80000000200FA
:04000003100000F8F1
:00000001FF
